{
  "address": "0x9E545E3C0baAB3E08CdfD552C960A1050f373042",
  "abi": [
    {
      "inputs": [],
      "stateMutability": "nonpayable",
      "type": "constructor"
    },
    {
      "anonymous": false,
      "inputs": [
        {
          "indexed": false,
          "internalType": "address[]",
          "name": "tokens",
          "type": "address[]"
        }
      ],
      "name": "TokensAdded",
      "type": "event"
    },
    {
      "anonymous": false,
      "inputs": [
        {
          "indexed": false,
          "internalType": "address[]",
          "name": "tokens",
          "type": "address[]"
        }
      ],
      "name": "TokensRemoved",
      "type": "event"
    },
    {
      "inputs": [
        {
          "internalType": "address",
          "name": "",
          "type": "address"
        }
      ],
      "name": "isSafelisted",
      "outputs": [
        {
          "internalType": "bool",
          "name": "",
          "type": "bool"
        }
      ],
      "stateMutability": "view",
      "type": "function"
    },
    {
      "inputs": [
        {
          "internalType": "address[]",
          "name": "added",
          "type": "address[]"
        },
        {
          "internalType": "address[]",
          "name": "removed",
          "type": "address[]"
        }
      ],
      "name": "modify",
      "outputs": [],
      "stateMutability": "nonpayable",
      "type": "function"
    }
  ],
  "transactionHash": "0x31a3ea8d1a713815b4c17ebae3c43e6de05c28323b5bae3fd4932e6eb6611841",
  "args": [],
  "bytecode": "0x60a060405234801561001057600080fd5b5033606081901b6080526104126100316000396000609201526104126000f3fe608060405234801561001057600080fd5b50600436106100365760003560e01c806334567cf81461003b5780634360aa8d14610072575b600080fd5b61005e6100493660046102df565b60006020819052908152604090205460ff1681565b604051901515815260200160405180910390f35b610085610080366004610300565b610087565b005b336001600160a01b037f000000000000000000000000000000000000000000000000000000000000000016146100f85760405162461bcd60e51b8152602060048201526012602482015271158c54d30e881d5b985d5d1a1bdc9a5e995960721b604482015260640160405180910390fd5b8280156101b95760005b8181101561017e57600160008088888581811061012f57634e487b7160e01b600052603260045260246000fd5b905060200201602081019061014491906102df565b6001600160a01b031681526020810191909152604001600020805460ff191691151591909117905580610176816103b5565b915050610102565b507f7d713019ad8a7d0879c2e785f8924ee9dd744ef744ec6b6d00391087054c5eb785856040516101b0929190610369565b60405180910390a15b8180156102715760005b81811015610236576000808686848181106101ee57634e487b7160e01b600052603260045260246000fd5b905060200201602081019061020391906102df565b6001600160a01b031681526020810191909152604001600020805460ff191690558061022e816103b5565b9150506101c3565b507fe102daee3529f9c698745d764bee5eeb856656a86a4ec6ab687e94cfb0edc1308484604051610268929190610369565b60405180910390a15b505050505050565b80356001600160a01b038116811461029057600080fd5b919050565b60008083601f8401126102a6578182fd5b50813567ffffffffffffffff8111156102bd578182fd5b6020830191508360208260051b85010111156102d857600080fd5b9250929050565b6000602082840312156102f0578081fd5b6102f982610279565b9392505050565b60008060008060408587031215610315578283fd5b843567ffffffffffffffff8082111561032c578485fd5b61033888838901610295565b90965094506020870135915080821115610350578384fd5b5061035d87828801610295565b95989497509550505050565b60208082528181018390526000908460408401835b868110156103aa576001600160a01b0361039784610279565b168252918301919083019060010161037e565b509695505050505050565b60006000198214156103d557634e487b7160e01b81526011600452602481fd5b506001019056fea26469706673582212208a2a900b707b87af4b54936b8c533689234f7971aea2895df1e02ae34973748864736f6c63430008040033"
}